:020000040800F2
:1000000008480020E9020008F71C0008D31B00087C
:10001000F51C0008870500082122000800000000E8
:10002000000000000000000000000000290200089D
:100030005D0600080000000085020008011D0008A0
:100040000303000803030008030300080303000878
:100050000303000803030008030300080303000868
:100060000303000803030008030300080303000858
:100070000303000803030008030300080303000848
:1000800003030008030300080303000895050008A4
:1000900089050008030300080303000803030008A0
:1000A0000303000803030008030300080303000818
:1000B0000303000803030008030300080303000808
:1000C00003030008030300080303000803030008F8
:1000D000030300089121000803030008030300083C
:1000E00003030008030300080303000803030008D8
:1000F00003030008030300080303000803030008C8
:1001000003030008030300080303000803030008B7
:10011000030300080303000803030008D11D0008BF
:100120000303000803030008A105000803030008F7
:100130000303000803030008030300080303000887
:100140000303000803030008030300080303000877
:100150000303000803030008AD05000803030008BB
:100160000303000803030008030300080303000857
:100170000303000803030008030300080000000055
:10018000030300080303000800F002F800F03CF845
:100190000AA090E8000C82448344AAF10107DA45E2
:1001A00001D100F031F8AFF2090EBAE80F0013F0F8
:1001B000010F18BFFB1A43F001031847702C000011
:1001C000902C0000103A24BF78C878C1FAD85207A2
:1001D00024BF30C830C144BF04680C6070470000C1
:1001E0000023002400250026103A28BF78C1FBD840
:1001F000520728BF30C148BF0B6070471FB502F0DF
:10020000EBFD1FBD10B510BD00F083F91146FFF7DF
:10021000F5FF02F016F800F0A1F903B4FFF7F2FFC2
:1002200003BC00F0A9F900002C4B19680868B0E87D
:10023000F04F80F30988BFF36F8F4FF0000080F319
:10024000118870470000000008480068006880F3CB
:1002500008884FF0000080F3148862B661B6BFF3DF
:100260004F8FBFF36F8F00DF00BF00BF08ED00E0CE
:10027000DFF80C00016841F470010160704700BFB5
:1002800088ED00E0EFF30980BFF36F8F134B1A681E
:100290001EF0100F08BF20ED108A20E9F04F10600B
:1002A00009B44FF0500080F31188BFF34F8FBFF3B4
:1002B0006F8F02F0C9FB4FF0000080F3118809BC7A
:1002C00019680868B0E8F04F1EF0100F08BFB0ECD6
:1002D000108A80F30988BFF36F8F704710000020E9
:1002E000EFF3058070470000094880470948004740
:1002F000FEE7FEE7FEE7FEE7FEE7FEE7FEE7FEE7D6
:10030000FEE7FEE704480549054A064B7047000032
:10031000C11D00088901000808420020084800208B
:10032000084400200844002053EA020C00F06980D1
:100330002DE9F04B4FF00006002B1FBFB3FA83F5F9
:1003400003FA05F424FA05F65E4012BF1643B2FA2A
:1003500082F502FA05F4C5F120051EBF22FA05FC5C
:1003600044EA0C04203556EA044C4FEA144418BF02
:10037000641C4FF000084FF00009904271EB030C31
:1003800039D3002919BFB1FA81F701FA07F6B0FA9B
:1003900080F700FA07F6C7F120071EBF20FA07FC16
:1003A00046EA0C062037B6FBF4FCA7EB0507103F26
:1003B00007F01F0BCBF120060CFA0BFB2CFA06F60C
:1003C00044BFB3460026202FA4BF5E464FF0000B6B
:1003D0005BEA060C08BF4FF0010B19EB0B09ABFBF6
:1003E000027C48EB0608C01B06FB02CC0BFB03CCCF
:1003F00071EB0C01C1E70B46024641464846BDE899
:10040000F08B13B54FF000004FF00001AFF3008008
:10041000BDE81C40704710B5203AC0F00B80B1E831
:100420001850203AA0E81850B1E81850A0E8185029
:10043000BFF4F5AF5FEA027C24BFB1E81850A0E832
:10044000185044BF18C918C0BDE810405FEA827C4C
:1004500024BF51F8043B40F8043B08BF7047D20763
:1004600028BF31F8023B48BF11F8012B28BF20F804
:10047000023B48BF00F8012B70474FF000020429EF
:10048000C0F0128010F0030C00F01B80CCF1040CC3
:10049000BCF1020F18BF00F8012BA8BF20F8022BF7
:1004A000A1EB0C0100F00DB85FEAC17C24BF00F89D
:1004B000012B00F8012B48BF00F8012B70474FF0CB
:1004C000000200B5134694469646203922BFA0E8A4
:1004D0000C50A0E80C50B1F12001BFF4F7AF0907B0
:1004E00028BFA0E80C5048BF0CC05DF804EB8900A1
:1004F00028BF40F8042B08BF704748BF20F8022BE4
:1005000011F0804F18BF00F8012B704770477047FB
:100510007047754600F02CF8AE4605006946534614
:1005200020F00700854618B020B5FFF7EBFEBDE8C8
:1005300020404FF000064FF000074FF000084FF04A
:10054000000B21F00701AC46ACE8C009ACE8C009DB
:10055000ACE8C009ACE8C0098D46704710B5044648
:10056000AFF300802046BDE81040FFF756BE000004
:1005700000487047A441002001491820ABBEFEE7A7
:10058000260002007047FEE7014800F0DFB80000D7
:10059000D03F0020014800F0D9B80000D03F002033
:1005A000014800F00FBB00003C400020014800F073
:1005B00009BB00009C40002001681823CAB2103A11
:1005C000B2FBF3F2054B6FF30901032A9B5CC36591
:1005D00000D9091D8165084670470000E22D00081A
:1005E00010B5014600208B698A6A4FF0C07453B180
:1005F000B3F5005F15D072B1012A0CD0022A0AD0DF
:10060000032A09D104E01AB1012A06D0022A03D133
:10061000C96AC90100D5012010BDC96AA142FAD03A
:1006200010BD002AF7D0012AF2D0022AF3D0032A03
:10063000F3D010BD30B50468256825F48025256009
:10064000046863608368402B036803D09960006886
:10065000C26030BD9A600068C16030BD704772B63C
:10066000FEE7704730B590F82040012C05D0022CF1
:1006700003D0416A41F480215DE00468002955D02F
:100680002469A40754D04FF4D874056804EB01140E
:100690002D5915F00405956005682D594ED0ED08CB
:1006A000556005682C5904F00204D4604FF4DA74E4
:1006B000056804EB01142D5905F00F051561056857
:1006C0002D59C5F30725956105682C59240C5461F3
:1006D0004FF4DC72046802EB0112A4581C70046829
:1006E000A458240A5C700468A458240C9C70046804
:1006F000A258120EDA704FF4DE72046802EB011297
:10070000A4581C710468A458240A5C710468A45895
:10071000240C9C710468A258120EDA71006881B131
:10072000016941F020010161002030BDE468A8E7C3
:10073000416A41F400114162012030BD6D0D156028
:10074000AFE7C16841F02001C160EDE72DE9F05F3E
:100750000546006800244669D0F804908768D0F800
:100760000CB0D0F810A0D0F81880F10748D0F907E5
:1007700014D001218160B80703D5284600F0D2F9D2
:100780000CE0780702D54FF4006407E0380702D583
:100790004FF4805402E0284600F0C3F9F80516D55E
:1007A00029684FF480708860B80503D5284600F0AA
:1007B000BBF90CE0780502D544F4005407E0380595
:1007C00002D544F4804402E0284600F0ACF9F80376
:1007D00016D529684FF480308860B80303D52846C1
:1007E00000F0A4F90CE0780302D544F4004407E0DB
:1007F000380302D544F4803402E0284600F095F92D
:10080000300707D55FEACB6004D52968102044F48F
:100810000074C86070074FF0080707D55FEA0B70D7
:1008200004D52868C760284600F060F9B00706D5EF
:100830002868C068800702D0284600F059F9700681
:1008400007D55FEACA6004D52968102044F48064A3
:100850000861B00607D55FEA0A7004D52868076109
:10086000284600F05BF9F00606D528680069800785
:1008700002D0284600F053F9B00308D55FEAC960FA
:1008800005D5296810204860284600F049F9F00392
:1008900007D55FEA097004D528684760284600F04C
:1008A00046F9300446D55FEA497040D5F00504D5D5
:1008B0005FEAC87001D044F00104B00504D55FEAD6
:1008C000887001D544F00204700504D55FEA4870D1
:1008D00001D544F00404300529D518F0700F26D056
:1008E00008F07000402815D006DC102809D0202818
:1008F0000AD0302816D10AE050280ED0602811D135
:100900000EE044F008040DE044F010040AE044F066
:10091000200407E044F0400404E044F0800401E0D7
:1009200044F480742868816921F07001816129682C
:1009300004204860002C05D0686A2043686228467D
:10094000FFF78FFEBDE8F09F70B5040003D094F868
:10095000200010B104E0012070BD204600F082F8B4
:100960002068016841F00101016000F095FB054637
:10097000052604E000F090FB401B0A2811D82068EF
:100980004068C007F6D02068016821F002010160CC
:1009900000F082FB05460BE000F07EFB401B0A28BE
:1009A00006D9606A40F40030606284F82060D2E7C3
:1009B000206840688007EFD4207E01282068016805
:1009C0003DD021F080010160607E0128206801682F
:1009D00038D021F040010160A07E01282068016824
:1009E00033D021F020010160E07E012820680168F9
:1009F0002ED041F010010160207F0128206801689D
:100A000029D021F008010160607F01282068016879
:100A100024D021F004010160D4E902010843D4E9A3
:100A20000412114308436168491E08432168C861E4
:100A300000206062012084F82000002070BD41F099
:100A40008001C0E741F04001C5E741F02001CAE75D
:100A500021F01001CFE741F00801D4E741F0040193
:100A6000D9E7000010B586B0044614216846FFF7A8
:100A700026FD1B49206888422FD11A4800210268B0
:100A800042F000720260006800F0007005901548A6
:100A90001038026842F0080202600068022200F08A
:100AA000080005900320CDE90210CDE900020920DD
:100AB000049069460C4800F0F7F900220521132044
:100AC00000F076FB132000F065FB002205211420C6
:100AD00000F06EFB142000F05DFB06B010BD0000BE
:100AE0000064004040380240000C024070470000A3
:100AF00010B5074CA04209D1064B074A0021FFF769
:100B0000B1FD2068416941F00201416110BD000062
:100B1000D03F00207C0000207041002070477047CB
:100B2000704770477047704770477047704770470D
:100B30002DE9F0410446876D00F0AEFA064694F8C0
:100B400035000025022806D08020606584F83450E6
:100B50000120BDE8F0812068016821F016010160E4
:100B60002068416921F080014161206C08B9A06CC6
:100B700020B12068016821F0080101602068016847
:100B800021F0010101600CE000F086FA801B0528CD
:100B900007D920206065032084F8350084F834509C
:100BA000D7E720680068C007EED194F85C103F20BA
:100BB0008840B860012084F8350084F83450002063
:100BC000C7E700002DE9F84304464FF00009CDF8CF
:100BD000009063484FF41651A56D0068B0FBF1F723
:100BE0002E6894F85C10082000FA01F131420FD011
:100BF00021680A6852070BD50A6822F004020A60CD
:100C000094F85C108840A860606D40F00100606559
:100C100094F85C104FF0010808FA01F0304208D057
:100C200021684969090604D5A860606D40F002009A
:100C3000606594F85C1004208840304208D0216838
:100C40000968890704D5A860606D40F004006065FC
:100C500094F85C1010208840304218D02168096850
:100C6000090714D5A86020680168490304D5006805
:100C7000000308D5A16C07E00168C90503D4016829
:100C800021F008010160216C09B12046884794F8E1
:100C90005C1020208840304231D021680968C906A4
:100CA0002DD5A86094F8350005282068016806D085
:100CB000490347D5006800031DD4616C1CE021F096
:100CC000160101602068416921F080014161206CBA
:100CD00008B9A06C20B12068016821F0080101600A
:100CE00094F85C103F208840A86084F8358084F830
:100CF0003490216D1FE0E16B09B120468847606D9B
:100D000000282BD0606DC00714D0052084F8350072
:100D10002068016821F0010101600098401C0090EA
:100D2000B84203D820680068C007F6D184F835803F
:100D300084F83490E16C002910D001B02046BDE861
:100D4000F04308470168C905D5D4016821F01001B6
:100D5000016084F8358084F83490CCE7BDE8F883EE
:100D60000C0000202DE9F041044600F095F90646FC
:100D70005CB1022084F83500002584F834502068E6
:100D8000016821F0010101600DE00120BDE8F08162
:100D900000F082F9801B052805D92020606503201A
:100DA00084F83500F2E720680068C007F0D12268B7
:100DB000116820480140D4E901031843D4E90336FF
:100DC0003343184363691843A3691843E36918431D
:100DD000236A18430843616A042903D1D4E90B1339
:100DE00019430843106020684069666A20F00701D3
:100DF00030460E43012704280CD1A06A0643E06A5E
:100E000040B12046FFF7ECFB20B14020606584F83C
:100E10003570BAE7206846612046FFF7CDFB94F8AD
:100E20005C203F2191408160656584F83570002029
:100E3000ACE700003F8010F02DE9F0410446866DDC
:100E400090F83400002501280DD0012084F83400EA
:100E500094F835700020012F07D084F83400022563
:100E60002846BDE8F0810220FBE7022784F83570B0
:100E700060652046FFF7DEFB94F85C103F20884059
:100E8000B0602068016841F016010160206C20B15B
:100E90002068016841F0080101602068016841F0A4
:100EA00001010160DCE700002DE9F84FDFF8BCA18B
:100EB000002201250AF1040B03264FF00F090BF164
:100EC000040E00BF0B6805FA02F42340A34270D160
:100ED0000F7907F00307012F01D0022F16D1876881
:100EE0004FEA420806FA08FC27EA0C07D1F80CC0C2
:100EF0000CFA08FC4CEA070CC0F808C04768A74386
:100F00000C79C4F3001494403C4344600C79E443EE
:100F1000A4070AD0C4684FEA420C06FA0CF7BC4397
:100F20008F6807FA0CF72743C7600C7904F00304B5
:100F3000022C12D1D40800EB840CDCF820405707B7
:100F4000FF0E09FA07F824EA0804D1F8108008FA1D
:100F500007F848EA0408CCF8208004684FEA420CFD
:100F600006FA0CF7BC430F7907F0030707FA0CF7F2
:100F7000274307604C6814F4403F70D03C4C27680E
:100F800047F480472760246822F0030704F4804474
:100F90000094384C07EB040CDCF8084897074FEA3C
:100FA000177809FA08F7BC43334FB84202D100273B
:100FB00024E054E0314FB84201D101271EE0304F08
:100FC000B84201D1022719E02E4FB84201D10327C0
:100FD00014E02D4FB84201D104270FE02B4FB84247
:100FE00001D105270AE02A4FB84201D1062705E0C2
:100FF000284FB84201D1072700E0082707FA08F771
:101000002743CCF80878DAF800405746D1F804C0F6
:101010009C435FEACC3C00D51C433C60DBF80040BD
:101020005F46D1F804C09C435FEA8C3C00D51C436A
:101030003C60DEF800407746D1F804C09C435FEA8C
:10104000CC2C00D51C433C60084F0C373C68D1F8D1
:1010500004C09C435FEA8C2C00D51C433C60521CAE
:10106000102AFFF42FAFBDE8F88F0000003C0140CC
:1010700044380240003001400000024000040240B9
:1010800000080240000C0240001002400014024020
:1010900000180240001C02400148806870470000B0
:1010A0000000002002488168027811448160704786
:1010B000000000200B4810B5016841F40071016088
:1010C000016841F480610160016841F48071016050
:1010D000032000F08DF80F2000F006F800F03EF835
:1010E000002010BD003C024010B5014688B000222F
:1010F000372000F05DF8372000F04CF8134800244A
:10110000016841F020010160006805A900F020009D
:101110000690684600F018F900F036F90C494000D6
:10112000B0FBF1F10C480B4A491E026040F2E73275
:10113000C0E90324C0E9011400F024FB10B1012030
:1011400008B010BD044800F04BFBF9E740380240FE
:1011500040420F0000140040FC4000200C4882B0C8
:10116000016841F480410160006800F48040009013
:101170000748001F016841F08051016000680022AB
:1011800000F0805000900F21901E02B000F010B8C7
:1011900044380240002809DB00F01F020121914081
:1011A0004009800000F1E020C0F800117047000005
:1011B000F0B40E4B1B680C46C3F30223C3F10705C2
:1011C000042D00D90425191D072901D2002300E0B0
:1011D000DB1E012606FA05F1491E214099409E407A
:1011E000761E16403143F0BC01F01BB80CED00E058
:1011F000064900F0070208684FF6FF03184040EA6E
:101200000220034A10430860704700000CED00E024
:101210000000FA052DE9F0470E46050065D0DFF81D
:101220001481D8F80000F7B200F00700B04207D2EE
:1012300088F80070D8F8000000F00700B04254D1E0
:1012400028683D4C810712D5400703D5206840F43B
:10125000E05020602878000703D5206840F4604003
:1012600020602068A96820F0F000084320602878FA
:10127000C0072DD0304968680839012812D00228EB
:1012800013D0032811D00968890700292DDA2168B5
:1012900021F0030101432160FFF7FEFE814641F288
:1012A000883A0EE009688903EFE709688901ECE7ED
:1012B000FFF7F2FEA0EB0901514502D90320BDE87A
:1012C000F0872068696800F00C00B0EB810FEFD167
:1012D000D8F80010404601F00701B14207D9077065
:1012E000006800F00700B04201D00120E7E728784D
:1012F000400705D52068E96820F4E05008432060E5
:101300002878000706D52068296920F4604040EA63
:10131000C100206000F058F82168084AC1F30311A9
:10132000515CC8400649086006480068FFF7DCFECB
:101330000020C4E7003C024008380240EA2D0008C3
:101340000C000020040000200F2202600C4A1368E9
:1013500003F003034360136803F0F0038360136832
:1013600003F4E053C36012684FF4E05303EAD2027F
:1013700002610448006800F0070008607047000040
:1013800008380240003C02400448054900680968EA
:10139000044AC1F38221515CC84070470C00002010
:1013A00008380240FA2D0008044805490068096819
:1013B000044AC1F34231515CC84070470C00002020
:1013C00008380240FA2D0008104810B5006810F0E7
:1013D0000C010F4818D0042916D0082914D10B4C41
:1013E000241F216801F03F02216821680023C1F316
:1013F0008811A1FB0001FEF797FF2168C1F30141AD
:10140000491C4900B0FBF1F010BD00000838024053
:101410000024F4002DE9F84F04006ED02078DFF8A6
:101420004C93C007A9F104054AD009F104000168F2
:10143000C1F38101012908D00068C0F381000228AE
:101440000AD1D9F80000400206D52868800337D5B4
:1014500060680028E1D033E06068B0F5803F10D0CC
:10146000B0F5A02F286810D020F4803028602868BC
:1014700020F4802028606068A8B1FFF70DFE0646C2
:101480000DE0286840F48030F4E740F480202860C4
:10149000F7E700BFFFF700FE801B642873D82868B9
:1014A0008003F7D50CE0FFF7F7FD064605E000BF27
:1014B000FFF7F2FD801B6428F0D828688003F7D47A
:1014C0002078DFF8AC8280074FF0000A3ED5A748AD
:1014D000001D016811F00C0F08D00068C0F38100F6
:1014E00002280BD1D9F80000400207D428688007F1
:1014F00016D5E068012800D112E033E1E068B8B108
:101500000120C8F80000FFF7C7FD064605E000BF50
:10151000FFF7C2FD801B0228C0D828688007F7D5D6
:101520002868216920F0F80040EAC10028600DE039
:10153000C8F800A0FFF7B0FD064604E0FFF7ACFDD9
:10154000801B02281FD828688007F7D4207800075E
:1015500022D5864F87486169703771B101210160DA
:10156000FFF79AFD064604E0FFF796FD801B022870
:1015700009D838688007F7D50EE0C0F800A0FFF75B
:101580008BFD064605E082E0FFF786FD801B022802
:101590007DD838688007F7D42078400768D5DFF811
:1015A000CCB100270BF13C0BDBF80000C0000BD4E2
:1015B000DBF8001041F08051CBF80010DBF80000A0
:1015C000012700F0805000906B4E3068C00510D4A9
:1015D000306840F480703060FFF75EFD009005E0F9
:1015E000FFF75AFD0099401A022850D83068C0050C
:1015F000F6D55E4EA0686C3601280FD005283068FD
:1016000010D020F001003060306820F0040030601D
:10161000A068B8B1FFF740FD00900FE0306840F0DF
:101620000100F4E740F004003060F7E7FFF734FD15
:101630000099411A41F28830814266D830688007AB
:10164000F4D50EE0FFF728FD009007E0FFF724FD3A
:101650000099411A41F28830814256D8306880079B
:10166000F4D42FB1DBF8001021F08051CBF800103A
:10167000A069C8B33D49091D0968C1F38101022968
:101680004AD00228504607D0C8F8600000E03CE08D
:10169000FFF702FD04463BE04746C8F86000FFF74D
:1016A000FBFC064605E000BFFFF7F6FC801B0228A6
:1016B0002BD828688001F7D4D4E907010843A16A30
:1016C0002E4A490802EB0141626A41EA821108434D
:1016D00094F82C1040EA0161C9F800100120386626
:1016E000FFF7DAFC044606E03EE000BFFFF7D4FC5B
:1016F000001B022809D828688001F7D534E000BF14
:10170000FFF7CAFC001B022802D90320BDE8F88FAE
:1017100028688001F4D427E00128F7D0D9F8000028
:10172000E26900F4800191421CD1226A00F03F017D
:10173000914217D147F6C071626A0140B1EB821F36
:1017400010D1A26A4FF0FF3300F4403103EB520294
:10175000B1EB024F06D194F82C1000F07060B0EBA2
:10176000016F01D00120D1E70020CFE7043802400B
:1017700000004742800E4742007000400000FFFF1B
:101780007047704710B5040003D094F83D0010B1C5
:1017900007E0012010BD002084F83C00204600F046
:1017A0001EF8022084F83D00211D206800F016FB81
:1017B000012084F8460084F83E0084F83F0084F855
:1017C000400084F8410084F8420084F8430084F823
:1017D000440084F8450084F83D00002010BD7047A7
:1017E00090F83D10012901D001207047022180F8B6
:1017F0003D100168CA6842F00102CA6000681149E0
:10180000884214D0B0F1804F11D00F4988420ED0D9
:101810000E4988420BD00E49884208D00D498842B3
:1018200005D00D49884202D00C49884204D1816814
:1018300001F00701062903D0016841F001010160B0
:1018400000207047000001400004004000080040F4
:10185000000C00400004014000400140001800401E
:10186000704770B50446006801694FF00005C94330
:10187000890715D4C168C943890711D4E91E0161DC
:1018800001202077206880698007204602D0FFF77A
:10189000E7FF04E000F098F8204600F096F825777E
:1018A00020680169C943490717D4C168C94349077A
:1018B00013D46FF004010161022020772068806951
:1018C00010F4407F204602D0FFF7CAFF04E000F08A
:1018D0007BF8204600F079F8257720680169C94334
:1018E000090716D4C168C943090712D46FF008016B
:1018F0000161042020772068C0698007204602D05B
:10190000FFF7AEFF04E000F05FF8204600F05DF85E
:10191000257720680169C943C90617D4C168C9433E
:10192000C90613D46FF010010161082020772068E8
:10193000C06910F4407F204602D0FFF791FF04E019
:1019400000F042F8204600F040F825772068016951
:10195000C943C90708D1C168C943C90704D1891E51
:101960000161204600F032F820680169C943090688
:1019700009D4C168C943090605D46FF0800101612B
:101980002046FFF7FDFE20680169C943490609D4D6
:10199000C168C943490605D46FF040010161204682
:1019A00000F01EF820680169C94389060BD4C1689C
:1019B000C943890607D46FF0200101612046BDE8C4
:1019C0007040FFF7DEBE70BD704770470068034986
:1019D000884201D1FFF766BB704700000014004049
:1019E0007047704710B504460068406994F83D1090
:1019F000C0F3C010212911D180B12068143050E803
:101A0000001F21F0800140E80012002AF5D1606B30
:101A100008B1FFF78DF8204600F0DEFA2068406933
:101A200094F83E10C0F38010222911D180B12068B3
:101A3000143050E8001F21F0400140E80012002A55
:101A4000F5D1A06B08B1FFF773F8204600F09DFABE
:101A5000002010BD704770B5040004D094F83D001C
:101A6000002510B106E0012070BD84F83C502046EE
:101A700000F022F8242084F83D002068C16821F499
:101A80000051C160204600F0B5FA2068016921F4D8
:101A9000904101612068416921F02A01416120687B
:101AA000C16841F40051C1602564202084F83D00E4
:101AB00084F83E00002070BD2DE9F04387B0064653
:101AC00014216846FEF7FBFC3149306888425BD13F
:101AD00030480024016841F010010160006800F006
:101AE000100005902B481438016841F00101016095
:101AF0000068694600F0010005904FF4C060009056
:101B00000220CDE90104032003900720049022481D
:101B1000FFF7CAF9224D21484FF000672860C5E958
:101B200001744FF48068C5E903486C614FF4403993
:101B3000AC61C5E9074928466C62FFF713F908B1A3
:101B4000FEF78DFDB563AE63154D144860357830F2
:101B5000E5E802074020A5E81101114845F81449BD
:101B60006030AC61C5E907496C62FFF7FBF808B16A
:101B7000FEF775FD7563002205212520AE63FFF792
:101B800017FB2520FFF706FB07B0BDE8F083000038
:101B9000001001404438024000000240406402400E
:101BA0003C40002090F83E30202B0ED159B152B16C
:101BB00090F83C30012B08D0012380F83C30002302
:101BC000036300F09DBA0120704702207047704700
:101BD0007047FEE70F4810B50D49016006214160CE
:101BE00000214FF400328160C0E90312120142610A
:101BF000017641768176C17601774177FEF7A4FEC2
:101C0000002803D0BDE81040FEF729BD10BD00003C
:101C100000640040D03F00200D4808B5016841F441
:101C2000800101600068002200F48000009005211E
:101C30003A20FFF7BDFA3A20FFF7ACFA002205215F
:101C40004620FFF7B5FABDE808404620FFF7A2BAE4
:101C50003038024000B587B01C2206496846FEF7BE
:101C6000DAFB0021684600F011FB0349086007B069
:101C700000BD0000042E0008780000200D4808B5C3
:101C8000016841F080010160016801F0800100916C
:101C9000016841F001010160016801F0010100915A
:101CA000016841F008010160006800F00800009040
:101CB00008BD0000303802400C4810B50A490160E8
:101CC0000B494160002181600C22C160C0E904120F
:101CD0008161C161FFF7BFFE002803D0BDE810405D
:101CE000FEF7BDBC10BD000000100140F83F002011
:101CF000A0860100FEE7FEE7012000F0BBFAFBE74B
:101D000010B5502080F31188BFF34F8FBFF36F8F52
:101D100000F09AFF18B104494FF08050086000208D
:101D200080F3118810BD000004ED00E030B593B0E1
:101D300030216846FEF7C3FB14210CA8FEF7BFFB59
:101D40001D480025016841F080510160006800F0E5
:101D5000805011901948016841F480410160006889
:101D6000022400F4804011900120009000040190B2
:101D70008001CDE9064008200890A820CDE909049B
:101D800004200B906846FFF745FB08B172B6FEE7EA
:101D90000CA90F2081E831004FF4A0500F904FF4B0
:101DA0008050109005210CA8FFF734FA002801D0CC
:101DB00072B6FEE713B030BD4038024000700040FC
:101DC0000248016841F470010160704788ED00E04D
:101DD0000148FFF746BD0000FC400020F0B5026856
:101DE000254C264D264E274F274B4FF0804CA042C6
:101DF00009D0604507D0A84205D0B04203D0B84210
:101E000001D0984204D122F0700E4A6842EA0E02D4
:101E1000A0421BD0604519D0A84217D0B04215D0BF
:101E2000B84213D0984211D0184DA8420ED0184D88
:101E3000A8420BD0174DA84208D0174DA84205D094
:101E4000164DA84202D0164DA84203D122F4407587
:101E5000CA682A434D6922F080022A4302608A68D8
:101E6000C2620A688262A04201D0984201D1096927
:101E7000016301214161F0BD000001400004004008
:101E800000080040000C00400004014000400140F8
:101E9000004401400048014000180040001C004080
:101EA0000020004070B5846B2068406994F83D10B4
:101EB000C0F3C0100025212904D118B1E5842046C3
:101EC00000F08AF82068406994F83E10C0F3801052
:101ED000222904D118B1E585204600F056F8206C7F
:101EE00040F0100020642046FFF7B4FD70BD10B52F
:101EF0000146806B09680968C9052FD40021C18596
:101F000001680C3151E8002F22F4807241E800236F
:101F1000002BF5D10168143151E8002F22F00102A5
:101F200041E80023002BF5D10168143151E8002F5E
:101F300022F0400241E80023002BF5D1202180F857
:101F40003E10016B012909D101680C3151E8002FC5
:101F500022F0100241E80023002BF5D1016B01298A
:101F600002D0FFF734FE10BD818DFFF73AFD10BDA2
:101F700010B5806B016B012902D0FFF729FE10BD5F
:101F8000818D4908FFF72DFD10BD01680C3151E826
:101F9000002F22F4907241E80023002BF5D1016854
:101FA000143151E8002F22F0010241E80023002BF8
:101FB000F5D1016B012909D101680C3151E8002FDD
:101FC00022F0100241E80023002BF5D1202180F8F7
:101FD0003E1000210163704701680C3151E8002F69
:101FE00022F0C00241E80023002BF5D1202180F827
:101FF0003D10704770B5044600680169E26821F43D
:102000004051114301612169A068E2690843616997
:10201000114308432168CA6849F20C639A4302439A
:10202000CA6020684169A26921F44071114341618D
:1020300031492068884202D03049884202D1FFF7F6
:10204000B3F901E0FFF7A0F9E26900231921642543
:102050003226B2F5004F626828D0A0FB0101930F31
:102060009200FEF761F90146B0FBF5F06FF018023F
:10207000504301EB800006EB0010B0FBF5F000F0E0
:10208000F002B1FBF5F002EB0012B1FBF5F06FF0DE
:102090001803584301EB800006EB0010B0FBF5F08D
:1020A00000F00F0021681044886070BDA0FB0101A2
:1020B00092185B41FEF738F90146B0FBF5F00201DA
:1020C000B1FBF5F06FF01803584301EB800006EB0D
:1020D000C000B0FBF5F000F0F80002EB4002B1FBED
:1020E000F5F0584301EB800006EBC000B0FBF5F0C3
:1020F00000F00700D6E70000001001400014014086
:1021000038B5816282850025134604460564222085
:1021100084F83E00A26B1B48D063A26B1A4810647F
:10212000A26B1A48D064A06B0A4605652168A06BB3
:10213000091DFEF781FE206801684068009084F860
:102140003C5020680C3050E8001F41F4807140E89A
:102150000012002AF5D12068143050E8001F41F029
:10216000010140E80012002AF5D12068143050E83F
:10217000001F41F0400140E80012002AF5D1002084
:1021800038BD0000EF1E0008711F0008A51E0008E2
:10219000014800F021B80000F83F002010B50068A9
:1021A000094988420ED10949094800F0C3FA1221B1
:1021B0000648FEF762F9BDE81040122203490548BF
:1021C000FFF7F0BC10BD00000010014044410020AA
:1021D0008C410020F83F002038B5016804460868AB
:1021E000C043C0060AD40868486800902046FFF73C
:1021F000F9FB2046BDE83840FFF7D0BF38BD0000EE
:1022000005480068C16841F01001C160122203490D
:102210000148FFF7C7BC0000F83F00204441002000
:10222000FEE70907090E002804DB00F1E02080F832
:102230000014704700F00F0000F1E02080F8141D3A
:102240007047FEF737FFFFF771FDFFF717FDFFF748
:10225000E3FCFFF7BFFCFFF72FFDFFF7D1FFFFF710
:10226000F9FC00F00EF8FEE701460020842900D0BA
:10227000C81C704710B500B9012000F081FB002098
:1022800010BD10B500F0A2FB002010BD7FB50D46BB
:1022900004464169B0F9080081B1A16971B1FFF745
:1022A000E3FFD4E905128DE80700D4E900102B46BE
:1022B000226900F09EFC039004B070BDFFF7D4FFCC
:1022C00003A9CDE90001208A2B4682B2D4E900108F
:1022D00000F062FC012801D00020EDE70398EBE755
:1022E0002DE9F041184C0F460546E6682068001DB0
:1022F00000F07FFA38B9206890F82C10012088404F
:10230000216981432161681C07D137B12168BDE88B
:10231000F0410E48091D00F0AFBA20683544B542BF
:102320004560216805D2A06BBDE8F041091D00F0B1
:102330008BBA606B091D00F087FAA06A854200D253
:10234000A562BDE8F08100001000002068010020B7
:102350002DE9F041054600F09BFA2E4CA068401C88
:10236000A06020682C4F10B1606940B32DE025605B
:10237000A068012829D1002606EB860007EB800023
:1023800000F054FA761C072EF6D323488C3000F068
:102390004DFA2148A03000F049FA1F48B43000F04F
:1023A00045FA1D48C83000F041FA1B48DC3000F007
:1023B0003DFA19488C3060631430A06305E0206852
:1023C000E96AC06A884200D82560606A401C606281
:1023D000E96A0120226988401043206101EB8100F5
:1023E00007EB8000291D00F047FA00F071FA6069E0
:1023F00000280CD02068E96AC06A884207D20749E1
:102400004FF080500860BFF34F8FBFF36F8FBDE870
:10241000F0810000100000208C00002004ED00E09E
:1024200010B5044690F8510058B101280CD002288C
:102430000FD0502080F31188BFF34F8FBFF36F8F01
:10244000FEE7206B00F058FA2046BDE8104000F08F
:1024500053BA10BD10484FF47051420706D0C01D4A
:102460000D4920F00700411AC1F570510B4A0023B5
:102470000144C2E900030839183A21F0070111604C
:102480004B600B600B1AC0E9001393604FF00040E3
:1024900053605061704700007C0100206400002000
:1024A000144E154CA6F1C8074FF08058DFF84C9039
:1024B00012E000BF00F0ECF9F068C568281D00F0DC
:1024C00098F9A068401EA0606068401E606000F03F
:1024D000FFF92846FFF7A4FF60680028EAD13868B2
:1024E0000128F9D9C9F80080BFF34F8FBFF36F8F70
:1024F000F2E70000540100201000002004ED00E08D
:102500002DE9F0479A46DDE9098481466FF003031F
:10251000206B03EB82021044089E20F00707780727
:1025200007D0502080F31188BFF34F8FBFF36F8F18
:10253000FEE7002561B1002023180A5C83F83420EF
:102540000A5C12B1401C1028F6D384F8435001E015
:1025500084F83450072E00D30626E662C4E91165DC
:10256000201D00F06EF904F1180000F06AF92461F2
:10257000C6F107006462A061E56484F850505246D9
:102580004946384600F0C0F82060B8F1000F01D08D
:10259000C8F80040BDE8F08730B5114900E01146A9
:1025A0000A688242FBD34B685C18844203D14068BE
:1025B00018444860084643681C18944209D1084CE6
:1025C000183C2468A24209D052681A4442600A6842
:1025D00012680260814200D0086030BD0460F9E7F3
:1025E000640000200648416B096829B1416BC96845
:1025F000C9684968816270474FF0FF31FAE700000F
:102600001000002008484068401C4FF0500080F344
:10261000118804D0BFF34F8FBFF36F8FFEE7BFF376
:102620004F8FBFF36F8FFEE76C0000202DE9F04164
:102630000546002700F000FA324E306808B9FFF76F
:1026400009FF706905424ED1C5B3083568070ED041
:1026500005F00700C0F108000544680707D05020C6
:1026600080F31188BFF34F8FBFF36F8FFEE72DB359
:102670007068854237D82348183001460C6801E05D
:1026800020460C466168A94202D221680029F7D190
:1026900031688C4227D0076821680160606808377C
:1026A000411B10290FD96019420708D0502080F330
:1026B0001188BFF34F8FBFF36F8FFEE713E04160C8
:1026C0006560FFF769FF61687068401A7060B26802
:1026D000904200D2B060706901430020C4E900015B
:1026E000F068401CF06000F015FB780707D0502020
:1026F00080F31188BFF34F8FBFF36F8FFEE738462B
:10270000BDE8F0814C00002010B5031F4FF080742D
:102710001C601B1F21F001011960191F044B0B6085
:1027200014390A60091F6FF0020244380A6010BDB4
:10273000052600082DE9F041054608880C46C0F33F
:102740000A02A2F580622A8048788978C00840EAA7
:102750004110C0F30A03A3F580636B80A078E17891
:10276000800940EA8100217902F5257240EA812042
:10277000C0F30A01A1F58061A9802079667940083B
:1027800040EAC610C0F30A00A0F58060E880268AFF
:10279000A6F5806636B22E816779BF09AF72677978
:1027A000C7F30117EF724FF4A567BA420FD803F5CC
:1027B0002573BB420BD801F52571B94207D800F546
:1027C0002570B84203D806F52576BE4203D91621F6
:1027D0002846FDF752FEE088A8812089E8816089BB
:1027E0002882207BA874607BE874E089A882BDE819
:1027F000F081D0E9013201699A60D0E901235A6081
:102800004A68824201D182684A60002202610868F7
:10281000401E086008687047034B036003F15400D2
:1028200008608020106070477C3D002000F10801A6
:102830004FF0FF32C0E90112C16001610021016067
:10284000704700210161704730B50B685A1C02D0F7
:1028500000F1080202E0026904E02246546825689B
:102860009D42FAD953684B6099608A605160086153
:102870000168491C016030BD42684A6093688B6002
:1028800093685960916008610168491C0160704754
:10289000502080F31188BFF34F8FBFF36F8F0A4929
:1028A0004868401C486001280CD10848006810F0B6
:1028B000FF0F07D0502080F31188BFF34F8FBFF375
:1028C0006F8FFEE7704700006C00002004ED00E011
:1028D0000849486828B1401E486001D180F311883A
:1028E0007047502080F31188BFF34F8FBFF36F8F75
:1028F000FEE700006C00002070B500282AD0164DBD
:10290000A0F1080460686969084207D1502080F38B
:102910001188BFF34F8FBFF36F8FFEE722683AB184
:10292000502080F31188BFF34F8FBFF36F8FFEE706
:102930008843606000F080F86068696808446860F7
:102940002046FFF729FE2869401C2861BDE8704039
:1029500000F0E0B970BD00004C0000204FF0E02016
:1029600000210161816105494FF47A720968B1FB68
:10297000F2F1491E41610721016170470C000020FE
:1029800010B5020014D00F48006B38B1502080F30E
:102990001188BFF34F8FBFF36F8FFEE700F04CF845
:1029A00000211046FFF79CFC00F0B4F9002807D185
:1029B00005494FF080500860BFF34F8FBFF36F8F12
:1029C00010BD00001000002004ED00E010B586B03E
:1029D0000024039405AA04A903A80494FFF71CFF8C
:1029E000DDE903010094CDE9011000230EA1104898
:1029F000059A00F0FEF80F490028C86211D0502057
:102A000080F31188BFF34F8FBFF36F8F4FF0FF300C
:102A1000886201204861CC6006B0BDE8104000F03B
:102A200041B806B010BD000049444C45000000000C
:102A3000A1240008100000200248016B491C01631A
:102A400070470000100000201448016B11B10121F3
:102A5000C16170470021C1610169B1FA81F1C1F121
:102A60001F0101EB81020E4951F822306BB101EBDD
:102A7000820101F108034A6852684A609A4201D112
:102A800052684A60D16801607047502080F3118815
:102A9000BFF34F8FBFF36F8FFEE7000010000020E1
:102AA0008C0000201CB537480168374A914207D195
:102AB000502080F31188BFF34F8FBFF36F8FFEE775
:102AC00000683149491E884207D1502080F311889F
:102AD000BFF34F8FBFF36F8FFEE72C49087801904B
:102AE000FF20087008788DF800009DF800009DF820
:102AF000002000F0F000904207D0502080F31188B1
:102B0000BFF34F8FBFF36F8FFEE79DF80000204C9F
:102B100000F0500020700720A06005E09DF8002024
:102B200052008DF80020401E9DF800201206F5D4BA
:102B3000A060032807D0502080F31188BFF34F8F87
:102B4000BFF36F8FFEE74FF44070A06001980870EC
:102B50000C482030016841F470010160016841F0C7
:102B600070410160FFF7FAFE00206060FDF780FB16
:102B70000848016841F040410160FDF765FB002015
:102B80001CBD000000ED00E071C20F4100E400E058
:102B90006C00002034EF00E02DE9FF5F8346DDE9A3
:102BA0000E87994616468A469000FFF73FFD0500BE
:102BB0001CD05420FFF73AFD040014D000202563F8
:102BC00084F85100CDE90240CDE900874B463246FA
:102BD00051465846FFF794FC2046FFF7B9FB012009
:102BE00004B0BDE8F09F2846FFF786FE4FF0FF30A7
:102BF000F6E7F0B585B0DDE90B640A9DA6B1DCB15E
:102C0000542700972663022684F85160002604AFFB
:102C1000CDE90246CDE90057FFF772FC2046FFF7E9
:102C200097FB049805B0F0BD502080F31188BFF3E6
:102C30004F8FBFF36F8FFEE7502080F31188BFF3F3
:102C40004F8FBFF36F8FFEE72DE9F0412F4C002629
:102C5000206B28B1A069401CA0613046BDE8F0811E
:102C6000E5686D1CE56013D1606B006838B15020D9
:102C700080F31188BFF34F8FBFF36F8FFEE7606B58
:102C8000A16B6163A063206A401C2062FFF7AAFC6D
:102C9000A06ADFF87C80854209D3606B0068A0B130
:102CA000606BC068C7687868854211D2A0622068EE
:102CB000C06A00EB800158F82100012800D90126E4
:102CC000E0690028C9D00126C7E74FF0FF30EDE7E3
:102CD000381DFFF78EFDB86A18B107F11800FFF72D
:102CE00088FDF96A0120226988401043206101EBC8
:102CF000810108EB8100391DFFF7BEFDF86A2168EC
:102D0000C96A8842C9D30126C7E700001000002025
:102D10008C0000202DE9F0472C4D00242746286B1D
:102D200038B1FFF7B5FD286B401E2863286B40B112
:102D300046E0502080F31188BFF34F8FBFF36F8FB1
:102D4000FEE7A968224E0120D1B3A6F1B40980465E
:102D50003068E8B1F068C46804F11800FFF749FD75
:102D6000201DFFF746FDE06A2A6908FA00F11143C9
:102D7000296100EB800109EB8100211DFFF77CFD3B
:102D8000E06A2968C96A8842E2D3C5F81C80DFE797
:102D90000CB1FFF727FCAC6944B14646FFF754FF7E
:102DA00000B1EE61641EF9D10020A861E86938B174
:102DB0000849012738070860BFF34F8FBFF36F8FB3
:102DC000FFF786FD3846BDE8F087000010000020C0
:102DD0004001002004ED00E04FF04070E1EE100AE9
:102DE00070470006101600061016000000000000D4
:102DF00000000102030406070809000000000102A8
:102E000003040000202E0008F91C00080000000048
:102E10000000000080000000000000000000000032
:102E200064656661756C745461736B004C2E0008A8
:102E3000000000208C000000C4010008D82E00080B
:102E40008C0000207C470000E00100080100000029
:102E500010000000000000000024F400000000004A
:102E60000000000000000000000000000000000062
:102E70000000000000000000000000000000000052
:102E80000000000000000000000000000000000042
:102E90000000000000000000000000000000000032
:102EA0000000000000000000000000000000000022
:102EB000000000000000000000000000AAAAAAAA6A
:102EC0000000000000000000000000000000000002
:082ED0000000000000000000FA
:040000050800018965
:00000001FF
